{
  "contractName": "Surveys",
  "abi": [
    {
      "inputs": [],
      "stateMutability": "nonpayable",
      "type": "constructor"
    },
    {
      "inputs": [
        {
          "internalType": "uint256",
          "name": "id",
          "type": "uint256"
        }
      ],
      "name": "fundSurvey",
      "outputs": [],
      "stateMutability": "payable",
      "type": "function"
    },
    {
      "inputs": [
        {
          "internalType": "uint256",
          "name": "surveyLimit",
          "type": "uint256"
        }
      ],
      "name": "makeSurvey",
      "outputs": [
        {
          "internalType": "uint256",
          "name": "",
          "type": "uint256"
        }
      ],
      "stateMutability": "nonpayable",
      "type": "function"
    },
    {
      "inputs": [
        {
          "internalType": "uint256",
          "name": "",
          "type": "uint256"
        }
      ],
      "name": "surveys",
      "outputs": [
        {
          "internalType": "address payable",
          "name": "owner",
          "type": "address"
        },
        {
          "internalType": "uint256",
          "name": "limit",
          "type": "uint256"
        },
        {
          "internalType": "uint256",
          "name": "pool",
          "type": "uint256"
        }
      ],
      "stateMutability": "view",
      "type": "function"
    },
    {
      "inputs": [
        {
          "internalType": "uint256",
          "name": "id",
          "type": "uint256"
        }
      ],
      "name": "takeSurvey",
      "outputs": [
        {
          "internalType": "uint256",
          "name": "",
          "type": "uint256"
        },
        {
          "internalType": "uint256",
          "name": "",
          "type": "uint256"
        }
      ],
      "stateMutability": "nonpayable",
      "type": "function"
    },
    {
      "inputs": [
        {
          "internalType": "uint256",
          "name": "id",
          "type": "uint256"
        }
      ],
      "name": "terminateSurvey",
      "outputs": [],
      "stateMutability": "nonpayable",
      "type": "function"
    }
  ],
  "bytecode": "0x6080604052600060015534801561001557600080fd5b50d3801561002257600080fd5b50d2801561002f57600080fd5b5033600260006101000a81548173ffffffffffffffffffffffffffffffffffffffff021916908373ffffffffffffffffffffffffffffffffffffffff16021790555061105b806100806000396000f3fe60806040526004361061004a5760003560e01c80636a63dc4a1461004f57806386e68b9014610092578063b041f58a146100eb578063b148e1b714610107578063b604ff281461015e575b600080fd5b34801561005b57600080fd5b50d3801561006857600080fd5b50d2801561007557600080fd5b50610090600480360381019061008b9190610aee565b6101b6565b005b34801561009e57600080fd5b50d380156100ab57600080fd5b50d280156100b857600080fd5b506100d360048036038101906100ce9190610aee565b61043c565b6040516100e293929190610bc5565b60405180910390f35b61010560048036038101906101009190610aee565b610496565b005b34801561011357600080fd5b50d3801561012057600080fd5b50d2801561012d57600080fd5b5061014860048036038101906101439190610aee565b610650565b6040516101559190610c7c565b60405180910390f35b34801561016a57600080fd5b50d3801561017757600080fd5b50d2801561018457600080fd5b5061019f600480360381019061019a9190610aee565b6107aa565b6040516101ad929190610c97565b60405180910390f35b3373ffffffffffffffffffffffffffffffffffffffff16600082815481106101e1576101e0610e6f565b5b906000526020600020906004020160000160009054906101000a900473ffffffffffffffffffffffffffffffffffffffff1673ffffffffffffffffffffffffffffffffffffffff1614610269576040517f08c379a000000000000000000000000000000000000000000000000000000000815260040161026090610c1c565b60405180910390fd5b600080828154811061027e5761027d610e6f565b5b906000526020600020906004020160020154600083815481106102a4576102a3610e6f565b5b9060005260206000209060040201600301546102c09190610d27565b90506000805b600084815481106102da576102d9610e6f565b5b9060005260206000209060040201600101805490508110156103bf576000848154811061030a57610309610e6f565b5b9060005260206000209060040201600101818154811061032d5761032c610e6f565b5b9060005260206000200160009054906101000a900473ffffffffffffffffffffffffffffffffffffffff1673ffffffffffffffffffffffffffffffffffffffff166108fc849081150290604051600060405180830381858888f1935050505015801561039d573d6000803e3d6000fd5b5082826103aa9190610cd1565b915080806103b790610dc8565b9150506102c6565b503373ffffffffffffffffffffffffffffffffffffffff166108fc82600086815481106103ef576103ee610e6f565b5b90600052602060002090600402016003015461040b9190610d58565b9081150290604051600060405180830381858888f19350505050158015610436573d6000803e3d6000fd5b50505050565b6000818154811061044c57600080fd5b90600052602060002090600402016000915090508060000160009054906101000a900473ffffffffffffffffffffffffffffffffffffffff16908060020154908060030154905083565b631dcd650034116104dc576040517f08c379a00000000000000000000000000000000000000000000000000000000081526004016104d390610c3c565b60405180910390fd5b600260009054906101000a900473ffffffffffffffffffffffffffffffffffffffff1673ffffffffffffffffffffffffffffffffffffffff166108fc6305f5e1009081150290604051600060405180830381858888f19350505050158015610548573d6000803e3d6000fd5b506000818154811061055d5761055c610e6f565b5b906000526020600020906004020160000160009054906101000a900473ffffffffffffffffffffffffffffffffffffffff1673ffffffffffffffffffffffffffffffffffffffff163373ffffffffffffffffffffffffffffffffffffffff161415610612576305f5e100346105d29190610d58565b600082815481106105e6576105e5610e6f565b5b906000526020600020906004020160030160008282546106069190610cd1565b9250508190555061064d565b6040517f08c379a000000000000000000000000000000000000000000000000000000000815260040161064490610c1c565b60405180910390fd5b50565b60008060405180608001604052803373ffffffffffffffffffffffffffffffffffffffff168152602001600067ffffffffffffffff81111561069557610694610e9e565b5b6040519080825280602002602001820160405280156106c35781602001602082028036833780820191505090505b50815260200184815260200160008152509050600081908060018154018082558091505060019003906000526020600020906004020160009091909190915060008201518160000160006101000a81548173ffffffffffffffffffffffffffffffffffffffff021916908373ffffffffffffffffffffffffffffffffffffffff1602179055506020820151816001019080519060200190610765929190610a32565b50604082015181600201556060820151816003015550506001600081548092919061078f90610dc8565b9190505550600180546107a29190610d58565b915050919050565b60008060005b600084815481106107c4576107c3610e6f565b5b9060005260206000209060040201600101805490508110156108c357600084815481106107f4576107f3610e6f565b5b9060005260206000209060040201600101818154811061081757610816610e6f565b5b9060005260206000200160009054906101000a900473ffffffffffffffffffffffffffffffffffffffff1673ffffffffffffffffffffffffffffffffffffffff163373ffffffffffffffffffffffffffffffffffffffff1614156108b0576040517f08c379a00000000000000000000000000000000000000000000000000000000081526004016108a790610bfc565b60405180910390fd5b80806108bb90610dc8565b9150506107b0565b50600083815481106108d8576108d7610e6f565b5b9060005260206000209060040201600101805490506000848154811061090157610900610e6f565b5b9060005260206000209060040201600201541415610954576040517f08c379a000000000000000000000000000000000000000000000000000000000815260040161094b90610c5c565b60405180910390fd5b6000838154811061096857610967610e6f565b5b9060005260206000209060040201600101339080600181540180825580915050600190039060005260206000200160009091909190916101000a81548173ffffffffffffffffffffffffffffffffffffffff021916908373ffffffffffffffffffffffffffffffffffffffff160217905550600083815481106109ee576109ed610e6f565b5b90600052602060002090600402016001018054905060008481548110610a1757610a16610e6f565b5b90600052602060002090600402016002015491509150915091565b828054828255906000526020600020908101928215610aab579160200282015b82811115610aaa5782518260006101000a81548173ffffffffffffffffffffffffffffffffffffffff021916908373ffffffffffffffffffffffffffffffffffffffff16021790555091602001919060010190610a52565b5b509050610ab89190610abc565b5090565b5b80821115610ad5576000816000905550600101610abd565b5090565b600081359050610ae88161100e565b92915050565b600060208284031215610b0457610b03610ecd565b5b6000610b1284828501610ad9565b91505092915050565b610b2481610d8c565b82525050565b6000610b37602683610cc0565b9150610b4282610ed2565b604082019050919050565b6000610b5a602583610cc0565b9150610b6582610f21565b604082019050919050565b6000610b7d602f83610cc0565b9150610b8882610f70565b604082019050919050565b6000610ba0602583610cc0565b9150610bab82610fbf565b604082019050919050565b610bbf81610dbe565b82525050565b6000606082019050610bda6000830186610b1b565b610be76020830185610bb6565b610bf46040830184610bb6565b949350505050565b60006020820190508181036000830152610c1581610b2a565b9050919050565b60006020820190508181036000830152610c3581610b4d565b9050919050565b60006020820190508181036000830152610c5581610b70565b9050919050565b60006020820190508181036000830152610c7581610b93565b9050919050565b6000602082019050610c916000830184610bb6565b92915050565b6000604082019050610cac6000830185610bb6565b610cb96020830184610bb6565b9392505050565b600082825260208201905092915050565b6000610cdc82610dbe565b9150610ce783610dbe565b9250827fffffffffffffffffffffffffffffffffffffffffffffffffffffffffffffffff03821115610d1c57610d1b610e11565b5b828201905092915050565b6000610d3282610dbe565b9150610d3d83610dbe565b925082610d4d57610d4c610e40565b5b828204905092915050565b6000610d6382610dbe565b9150610d6e83610dbe565b925082821015610d8157610d80610e11565b5b828203905092915050565b6000610d9782610d9e565b9050919050565b600073ffffffffffffffffffffffffffffffffffffffff82169050919050565b6000819050919050565b6000610dd382610dbe565b91507fffffffffffffffffffffffffffffffffffffffffffffffffffffffffffffffff821415610e0657610e05610e11565b5b600182019050919050565b7f4e487b7100000000000000000000000000000000000000000000000000000000600052601160045260246000fd5b7f4e487b7100000000000000000000000000000000000000000000000000000000600052601260045260246000fd5b7f4e487b7100000000000000000000000000000000000000000000000000000000600052603260045260246000fd5b7f4e487b7100000000000000000000000000000000000000000000000000000000600052604160045260246000fd5b600080fd5b7f596f752063616e6e6f742074616b65207468652073616d65207375727665792060008201527f74776963652e0000000000000000000000000000000000000000000000000000602082015250565b7f596f7520646f206e6f74206f776e20616e7920737572766579206f662074686160008201527f742069642e000000000000000000000000000000000000000000000000000000602082015250565b7f596f75206d7573742066756e6420796f7572207375727665792077697468206160008201527f74206c6561737420353030205452580000000000000000000000000000000000602082015250565b7f54686973207375727665792773206c696d697420686173206265656e2072656160008201527f636865642e000000000000000000000000000000000000000000000000000000602082015250565b61101781610dbe565b811461102257600080fd5b5056fea26474726f6e5822122039c461271b7523b31c9e013fbcc78ae559e691baa06527b8d509c219327bf8c564736f6c63430008060033",
  "source": "// SPDX-License-Identifier: GPL-3.0\n\npragma solidity >=0.7.0 <0.9.0;\n\ncontract Surveys {\n    \n    struct Survey {\n        address payable owner;\n        address payable[] participants;\n        uint256 limit;\n        uint256 pool;\n    }\n    \n    Survey[] public surveys; // List of surveys\n    uint256 idCount = 0;\n    \n    address payable contractOwner; // designate contract owner\n    constructor() {\n        contractOwner = payable(msg.sender);\n    }\n    \n    function makeSurvey(uint256 surveyLimit) public returns(uint256) {\n        \n        Survey memory newSurvey = Survey({owner:payable(msg.sender), participants:new address payable[](0), limit:surveyLimit, pool:0});\n        surveys.push(newSurvey);\n        idCount++;\n        return idCount - 1;\n    }\n    \n    function fundSurvey(uint256 id) public payable { // fund reward pool for a survey\n    \n        require(\n            msg.value > 500 trx,\n            \"You must fund your survey with at least 500 TRX\"  \n        );\n        \n        contractOwner.transfer(100 trx); // Pay 100 TRX ($5) to our address for monetization\n        \n        if (payable(msg.sender) == surveys[id].owner){\n            surveys[id].pool += msg.value - 100 trx;\n        } else {\n            revert(\"You do not own any survey of that id.\");\n        } \n        \n        \n    } \n    \n    function takeSurvey(uint256 id) public returns(uint256, uint256) { // record participant address in the survey's array. \n        \n        for (uint i = 0; i < surveys[id].participants.length; i++) {\n            if (msg.sender == surveys[id].participants[i]) {\n                revert(\"You cannot take the same survey twice.\");\n            }\n        }\n        \n        if (surveys[id].limit == surveys[id].participants.length) {\n            revert(\"This survey's limit has been reached.\");\n        }\n        \n        surveys[id].participants.push(payable(msg.sender));\n        \n        return(surveys[id].participants.length, surveys[id].limit); // To reflect how many people have taken the survey on frontend\n    }\n    \n    function terminateSurvey(uint256 id) public { // distribute survey rewards to current respondents.\n        \n        if (surveys[id].owner != payable(msg.sender)){ // Make sure only owner can call this function\n            revert(\"You do not own any survey of that id.\");\n        }\n\n        uint amount = surveys[id].pool / surveys[id].limit;\n        uint totalamount = 0;\n    \n        for (uint i = 0; i < surveys[id].participants.length; i++) { // pay each participant\n            surveys[id].participants[i].transfer(amount);\n            totalamount = totalamount + amount;\n        }\n        payable(msg.sender).transfer(surveys[id].pool - totalamount);\n        \n    }\n    \n    \n}",
  "sourcePath": "/Users/ectan/Coding/hackweb3tron/contracts/survey.sol",
  "compiler": {
    "name": "solc",
    "version": "0.8.6+commit.0e36fba0.mod.Emscripten.clang"
  },
  "schemaVersion": "2.0.1",
  "updatedAt": "2022-11-13T07:25:22.794Z"
}